{
    "_format": "hh-sol-artifact-1",
    "contractName": "Domains",
    "sourceName": "contracts/Domains.sol",
    "abi": [
        {
            "inputs": [
                {
                    "internalType": "string",
                    "name": "_tld",
                    "type": "string"
                }
            ],
            "stateMutability": "payable",
            "type": "constructor"
        },
        {
            "inputs": [],
            "name": "AlreadyRegistered",
            "type": "error"
        },
        {
            "inputs": [
                {
                    "internalType": "string",
                    "name": "name",
                    "type": "string"
                }
            ],
            "name": "InvalidName",
            "type": "error"
        },
        {
            "inputs": [],
            "name": "Unauthorized",
            "type": "error"
        },
        {
            "anonymous": false,
            "inputs": [
                {
                    "indexed": true,
                    "internalType": "address",
                    "name": "owner",
                    "type": "address"
                },
                {
                    "indexed": true,
                    "internalType": "address",
                    "name": "approved",
                    "type": "address"
                },
                {
                    "indexed": true,
                    "internalType": "uint256",
                    "name": "tokenId",
                    "type": "uint256"
                }
            ],
            "name": "Approval",
            "type": "event"
        },
        {
            "anonymous": false,
            "inputs": [
                {
                    "indexed": true,
                    "internalType": "address",
                    "name": "owner",
                    "type": "address"
                },
                {
                    "indexed": true,
                    "internalType": "address",
                    "name": "operator",
                    "type": "address"
                },
                {
                    "indexed": false,
                    "internalType": "bool",
                    "name": "approved",
                    "type": "bool"
                }
            ],
            "name": "ApprovalForAll",
            "type": "event"
        },
        {
            "anonymous": false,
            "inputs": [
                {
                    "indexed": true,
                    "internalType": "address",
                    "name": "from",
                    "type": "address"
                },
                {
                    "indexed": true,
                    "internalType": "address",
                    "name": "to",
                    "type": "address"
                },
                {
                    "indexed": true,
                    "internalType": "uint256",
                    "name": "tokenId",
                    "type": "uint256"
                }
            ],
            "name": "Transfer",
            "type": "event"
        },
        {
            "inputs": [
                {
                    "internalType": "address",
                    "name": "to",
                    "type": "address"
                },
                {
                    "internalType": "uint256",
                    "name": "tokenId",
                    "type": "uint256"
                }
            ],
            "name": "approve",
            "outputs": [],
            "stateMutability": "nonpayable",
            "type": "function"
        },
        {
            "inputs": [
                {
                    "internalType": "address",
                    "name": "owner",
                    "type": "address"
                }
            ],
            "name": "balanceOf",
            "outputs": [
                {
                    "internalType": "uint256",
                    "name": "",
                    "type": "uint256"
                }
            ],
            "stateMutability": "view",
            "type": "function"
        },
        {
            "inputs": [
                {
                    "internalType": "string",
                    "name": "",
                    "type": "string"
                }
            ],
            "name": "domains",
            "outputs": [
                {
                    "internalType": "address",
                    "name": "",
                    "type": "address"
                }
            ],
            "stateMutability": "view",
            "type": "function"
        },
        {
            "inputs": [
                {
                    "internalType": "string",
                    "name": "name",
                    "type": "string"
                }
            ],
            "name": "getAddress",
            "outputs": [
                {
                    "internalType": "address",
                    "name": "",
                    "type": "address"
                }
            ],
            "stateMutability": "view",
            "type": "function"
        },
        {
            "inputs": [],
            "name": "getAllNames",
            "outputs": [
                {
                    "internalType": "string[]",
                    "name": "",
                    "type": "string[]"
                }
            ],
            "stateMutability": "view",
            "type": "function"
        },
        {
            "inputs": [
                {
                    "internalType": "uint256",
                    "name": "tokenId",
                    "type": "uint256"
                }
            ],
            "name": "getApproved",
            "outputs": [
                {
                    "internalType": "address",
                    "name": "",
                    "type": "address"
                }
            ],
            "stateMutability": "view",
            "type": "function"
        },
        {
            "inputs": [
                {
                    "internalType": "string",
                    "name": "name",
                    "type": "string"
                }
            ],
            "name": "getRecord",
            "outputs": [
                {
                    "internalType": "string",
                    "name": "",
                    "type": "string"
                }
            ],
            "stateMutability": "view",
            "type": "function"
        },
        {
            "inputs": [
                {
                    "internalType": "address",
                    "name": "owner",
                    "type": "address"
                },
                {
                    "internalType": "address",
                    "name": "operator",
                    "type": "address"
                }
            ],
            "name": "isApprovedForAll",
            "outputs": [
                {
                    "internalType": "bool",
                    "name": "",
                    "type": "bool"
                }
            ],
            "stateMutability": "view",
            "type": "function"
        },
        {
            "inputs": [],
            "name": "isOwner",
            "outputs": [
                {
                    "internalType": "bool",
                    "name": "",
                    "type": "bool"
                }
            ],
            "stateMutability": "view",
            "type": "function"
        },
        {
            "inputs": [],
            "name": "name",
            "outputs": [
                {
                    "internalType": "string",
                    "name": "",
                    "type": "string"
                }
            ],
            "stateMutability": "view",
            "type": "function"
        },
        {
            "inputs": [
                {
                    "internalType": "uint256",
                    "name": "",
                    "type": "uint256"
                }
            ],
            "name": "names",
            "outputs": [
                {
                    "internalType": "string",
                    "name": "",
                    "type": "string"
                }
            ],
            "stateMutability": "view",
            "type": "function"
        },
        {
            "inputs": [],
            "name": "owner",
            "outputs": [
                {
                    "internalType": "address payable",
                    "name": "",
                    "type": "address"
                }
            ],
            "stateMutability": "view",
            "type": "function"
        },
        {
            "inputs": [
                {
                    "internalType": "uint256",
                    "name": "tokenId",
                    "type": "uint256"
                }
            ],
            "name": "ownerOf",
            "outputs": [
                {
                    "internalType": "address",
                    "name": "",
                    "type": "address"
                }
            ],
            "stateMutability": "view",
            "type": "function"
        },
        {
            "inputs": [
                {
                    "internalType": "string",
                    "name": "name",
                    "type": "string"
                }
            ],
            "name": "price",
            "outputs": [
                {
                    "internalType": "uint256",
                    "name": "",
                    "type": "uint256"
                }
            ],
            "stateMutability": "pure",
            "type": "function"
        },
        {
            "inputs": [
                {
                    "internalType": "string",
                    "name": "",
                    "type": "string"
                }
            ],
            "name": "records",
            "outputs": [
                {
                    "internalType": "string",
                    "name": "",
                    "type": "string"
                }
            ],
            "stateMutability": "view",
            "type": "function"
        },
        {
            "inputs": [
                {
                    "internalType": "string",
                    "name": "name",
                    "type": "string"
                }
            ],
            "name": "register",
            "outputs": [],
            "stateMutability": "payable",
            "type": "function"
        },
        {
            "inputs": [
                {
                    "internalType": "address",
                    "name": "from",
                    "type": "address"
                },
                {
                    "internalType": "address",
                    "name": "to",
                    "type": "address"
                },
                {
                    "internalType": "uint256",
                    "name": "tokenId",
                    "type": "uint256"
                }
            ],
            "name": "safeTransferFrom",
            "outputs": [],
            "stateMutability": "nonpayable",
            "type": "function"
        },
        {
            "inputs": [
                {
                    "internalType": "address",
                    "name": "from",
                    "type": "address"
                },
                {
                    "internalType": "address",
                    "name": "to",
                    "type": "address"
                },
                {
                    "internalType": "uint256",
                    "name": "tokenId",
                    "type": "uint256"
                },
                {
                    "internalType": "bytes",
                    "name": "data",
                    "type": "bytes"
                }
            ],
            "name": "safeTransferFrom",
            "outputs": [],
            "stateMutability": "nonpayable",
            "type": "function"
        },
        {
            "inputs": [
                {
                    "internalType": "address",
                    "name": "operator",
                    "type": "address"
                },
                {
                    "internalType": "bool",
                    "name": "approved",
                    "type": "bool"
                }
            ],
            "name": "setApprovalForAll",
            "outputs": [],
            "stateMutability": "nonpayable",
            "type": "function"
        },
        {
            "inputs": [
                {
                    "internalType": "string",
                    "name": "name",
                    "type": "string"
                },
                {
                    "internalType": "string",
                    "name": "record",
                    "type": "string"
                }
            ],
            "name": "setRecord",
            "outputs": [],
            "stateMutability": "nonpayable",
            "type": "function"
        },
        {
            "inputs": [
                {
                    "internalType": "bytes4",
                    "name": "interfaceId",
                    "type": "bytes4"
                }
            ],
            "name": "supportsInterface",
            "outputs": [
                {
                    "internalType": "bool",
                    "name": "",
                    "type": "bool"
                }
            ],
            "stateMutability": "view",
            "type": "function"
        },
        {
            "inputs": [],
            "name": "symbol",
            "outputs": [
                {
                    "internalType": "string",
                    "name": "",
                    "type": "string"
                }
            ],
            "stateMutability": "view",
            "type": "function"
        },
        {
            "inputs": [],
            "name": "tld",
            "outputs": [
                {
                    "internalType": "string",
                    "name": "",
                    "type": "string"
                }
            ],
            "stateMutability": "view",
            "type": "function"
        },
        {
            "inputs": [
                {
                    "internalType": "uint256",
                    "name": "tokenId",
                    "type": "uint256"
                }
            ],
            "name": "tokenURI",
            "outputs": [
                {
                    "internalType": "string",
                    "name": "",
                    "type": "string"
                }
            ],
            "stateMutability": "view",
            "type": "function"
        },
        {
            "inputs": [
                {
                    "internalType": "address",
                    "name": "from",
                    "type": "address"
                },
                {
                    "internalType": "address",
                    "name": "to",
                    "type": "address"
                },
                {
                    "internalType": "uint256",
                    "name": "tokenId",
                    "type": "uint256"
                }
            ],
            "name": "transferFrom",
            "outputs": [],
            "stateMutability": "nonpayable",
            "type": "function"
        },
        {
            "inputs": [
                {
                    "internalType": "string",
                    "name": "name",
                    "type": "string"
                }
            ],
            "name": "valid",
            "outputs": [
                {
                    "internalType": "bool",
                    "name": "",
                    "type": "bool"
                }
            ],
            "stateMutability": "pure",
            "type": "function"
        },
        {
            "inputs": [],
            "name": "withdraw",
            "outputs": [],
            "stateMutability": "nonpayable",
            "type": "function"
        }
    ],
    "bytecode": "0x6080604052604051806108a0016040528061086b81526020016200517f61086b9139600a908051906020019062000038929190620002c8565b506040518060400160405280600d81526020017f3c2f746578743e3c2f7376673e00000000000000000000000000000000000000815250600b908051906020019062000086929190620002c8565b50604051620059ea380380620059ea8339818101604052810190620000ac919062000515565b6040518060400160405280601781526020017f48656c6c6f5468657265204e616d6520536572766963650000000000000000008152506040518060400160405280600481526020017f48544e5300000000000000000000000000000000000000000000000000000000815250816000908051906020019062000130929190620002c8565b50806001908051906020019062000149929190620002c8565b50505033600860006101000a81548173ffffffffffffffffffffffffffffffffffffffff021916908373ffffffffffffffffffffffffffffffffffffffff1602179055508060099080519060200190620001a5929190620002c8565b50620001f26040518060400160405280601881526020017f2573206e616d652073657276696365206465706c6f796564000000000000000081525082620001f960201b62001c401760201c565b5062000663565b6200029b828260405160240162000212929190620005c3565b6040516020818303038152906040527f4b5c4277000000000000000000000000000000000000000000000000000000007bffffffffffffffffffffffffffffffffffffffffffffffffffffffff19166020820180517bffffffffffffffffffffffffffffffffffffffffffffffffffffffff83818316178352505050506200029f60201b60201c565b5050565b60008151905060006a636f6e736f6c652e6c6f679050602083016000808483855afa5050505050565b828054620002d6906200062d565b90600052602060002090601f016020900481019282620002fa576000855562000346565b82601f106200031557805160ff191683800117855562000346565b8280016001018555821562000346579182015b828111156200034557825182559160200191906001019062000328565b5b50905062000355919062000359565b5090565b5b80821115620003745760008160009055506001016200035a565b5090565b6000604051905090565b600080fd5b600080fd5b600080fd5b600080fd5b6000601f19601f8301169050919050565b7f4e487b7100000000000000000000000000000000000000000000000000000000600052604160045260246000fd5b620003e18262000396565b810181811067ffffffffffffffff82111715620004035762000402620003a7565b5b80604052505050565b60006200041862000378565b9050620004268282620003d6565b919050565b600067ffffffffffffffff821115620004495762000448620003a7565b5b620004548262000396565b9050602081019050919050565b60005b838110156200048157808201518184015260208101905062000464565b8381111562000491576000848401525b50505050565b6000620004ae620004a8846200042b565b6200040c565b905082815260208101848484011115620004cd57620004cc62000391565b5b620004da84828562000461565b509392505050565b600082601f830112620004fa57620004f96200038c565b5b81516200050c84826020860162000497565b91505092915050565b6000602082840312156200052e576200052d62000382565b5b600082015167ffffffffffffffff8111156200054f576200054e62000387565b5b6200055d84828501620004e2565b91505092915050565b600081519050919050565b600082825260208201905092915050565b60006200058f8262000566565b6200059b818562000571565b9350620005ad81856020860162000461565b620005b88162000396565b840191505092915050565b60006040820190508181036000830152620005df818562000582565b90508181036020830152620005f5818462000582565b90509392505050565b7f4e487b7100000000000000000000000000000000000000000000000000000000600052602260045260246000fd5b600060028204905060018216806200064657607f821691505b602082108114156200065d576200065c620005fe565b5b50919050565b614b0c80620006736000396000f3fe60806040526004361061019c5760003560e01c806370a08231116100ec578063bf40fac11161008a578063e985e9c511610064578063e985e9c514610624578063f2c298be14610661578063fb825e5f1461067d578063fe2c6198146106a85761019c565b8063bf40fac114610581578063c1880a98146105be578063c87b56dd146105e75761019c565b806395d89b41116100c657806395d89b41146104c75780639791c097146104f2578063a22cb4651461052f578063b88d4fde146105585761019c565b806370a08231146104345780638da5cb5b146104715780638f32d59b1461049c5761019c565b8063264492351161015957806342842e0e1161013357806342842e0e146103545780634622ab031461037d578063541e771d146103ba5780636352211e146103f75761019c565b806326449235146102d55780632d551432146103125780633ccfd60b1461033d5761019c565b806301ffc9a7146101a157806306fdde03146101de578063081812fc14610209578063095ea7b31461024657806311dd88451461026f57806323b872dd146102ac575b600080fd5b3480156101ad57600080fd5b506101c860048036038101906101c391906130e8565b6106e5565b6040516101d59190613130565b60405180910390f35b3480156101ea57600080fd5b506101f36107c7565b60405161020091906131e4565b60405180910390f35b34801561021557600080fd5b50610230600480360381019061022b919061323c565b610859565b60405161023d91906132aa565b60405180910390f35b34801561025257600080fd5b5061026d600480360381019061026891906132f1565b61089f565b005b34801561027b57600080fd5b5061029660048036038101906102919190613396565b6109b7565b6040516102a391906131e4565b60405180910390f35b3480156102b857600080fd5b506102d360048036038101906102ce91906133e3565b610a6a565b005b3480156102e157600080fd5b506102fc60048036038101906102f79190613566565b610aca565b60405161030991906132aa565b60405180910390f35b34801561031e57600080fd5b50610327610b13565b60405161033491906131e4565b60405180910390f35b34801561034957600080fd5b50610352610ba1565b005b34801561036057600080fd5b5061037b600480360381019061037691906133e3565b610c67565b005b34801561038957600080fd5b506103a4600480360381019061039f919061323c565b610c87565b6040516103b191906131e4565b60405180910390f35b3480156103c657600080fd5b506103e160048036038101906103dc9190613566565b610d27565b6040516103ee91906131e4565b60405180910390f35b34801561040357600080fd5b5061041e6004803603810190610419919061323c565b610ddd565b60405161042b91906132aa565b60405180910390f35b34801561044057600080fd5b5061045b600480360381019061045691906135af565b610e8f565b60405161046891906135eb565b60405180910390f35b34801561047d57600080fd5b50610486610f47565b6040516104939190613627565b60405180910390f35b3480156104a857600080fd5b506104b1610f6d565b6040516104be9190613130565b60405180910390f35b3480156104d357600080fd5b506104dc610fc5565b6040516104e991906131e4565b60405180910390f35b3480156104fe57600080fd5b5061051960048036038101906105149190613396565b611057565b6040516105269190613130565b60405180910390f35b34801561053b57600080fd5b506105566004803603810190610551919061366e565b61110b565b005b34801561056457600080fd5b5061057f600480360381019061057a919061374f565b611121565b005b34801561058d57600080fd5b506105a860048036038101906105a39190613396565b611183565b6040516105b591906132aa565b60405180910390f35b3480156105ca57600080fd5b506105e560048036038101906105e091906137d2565b6111ce565b005b3480156105f357600080fd5b5061060e6004803603810190610609919061323c565b611321565b60405161061b91906131e4565b60405180910390f35b34801561063057600080fd5b5061064b60048036038101906106469190613853565b611434565b6040516106589190613130565b60405180910390f35b61067b60048036038101906106769190613396565b6114c8565b005b34801561068957600080fd5b506106926119bf565b60405161069f919061399f565b60405180910390f35b3480156106b457600080fd5b506106cf60048036038101906106ca9190613396565b611b9d565b6040516106dc91906135eb565b60405180910390f35b60007f80ac58cd000000000000000000000000000000000000000000000000000000007bffffffffffffffffffffffffffffffffffffffffffffffffffffffff1916827bffffffffffffffffffffffffffffffffffffffffffffffffffffffff191614806107b057507f5b5e139f000000000000000000000000000000000000000000000000000000007bffffffffffffffffffffffffffffffffffffffffffffffffffffffff1916827bffffffffffffffffffffffffffffffffffffffffffffffffffffffff1916145b806107c057506107bf82611cdc565b5b9050919050565b6060600080546107d6906139f0565b80601f0160208091040260200160405190810160405280929190818152602001828054610802906139f0565b801561084f5780601f106108245761010080835404028352916020019161084f565b820191906000526020600020905b81548152906001019060200180831161083257829003601f168201915b5050505050905090565b600061086482611d46565b6004600083815260200190815260200160002060009054906101000a900473ffffffffffffffffffffffffffffffffffffffff169050919050565b60006108aa82610ddd565b90508073ffffffffffffffffffffffffffffffffffffffff168373ffffffffffffffffffffffffffffffffffffffff16141561091b576040517f08c379a000000000000000000000000000000000000000000000000000000000815260040161091290613a94565b60405180910390fd5b8073ffffffffffffffffffffffffffffffffffffffff1661093a611d91565b73ffffffffffffffffffffffffffffffffffffffff161480610969575061096881610963611d91565b611434565b5b6109a8576040517f08c379a000000000000000000000000000000000000000000000000000000000815260040161099f90613b26565b60405180910390fd5b6109b28383611d99565b505050565b6060600d83836040516109cb929190613b76565b908152602001604051809103902080546109e4906139f0565b80601f0160208091040260200160405190810160405280929190818152602001828054610a10906139f0565b8015610a5d5780601f10610a3257610100808354040283529160200191610a5d565b820191906000526020600020905b815481529060010190602001808311610a4057829003601f168201915b5050505050905092915050565b610a7b610a75611d91565b82611e52565b610aba576040517f08c379a0000000000000000000000000000000000000000000000000000000008152600401610ab190613c01565b60405180910390fd5b610ac5838383611ee7565b505050565b600c818051602081018201805184825260208301602085012081835280955050505050506000915054906101000a900473ffffffffffffffffffffffffffffffffffffffff1681565b60098054610b20906139f0565b80601f0160208091040260200160405190810160405280929190818152602001828054610b4c906139f0565b8015610b995780601f10610b6e57610100808354040283529160200191610b99565b820191906000526020600020905b815481529060010190602001808311610b7c57829003601f168201915b505050505081565b610ba9610f6d565b610bb257600080fd5b600047905060003373ffffffffffffffffffffffffffffffffffffffff1682604051610bdd90613c52565b60006040518083038185875af1925050503d8060008114610c1a576040519150601f19603f3d011682016040523d82523d6000602084013e610c1f565b606091505b5050905080610c63576040517f08c379a0000000000000000000000000000000000000000000000000000000008152600401610c5a90613cb3565b60405180910390fd5b5050565b610c8283838360405180602001604052806000815250611121565b505050565b600e6020528060005260406000206000915090508054610ca6906139f0565b80601f0160208091040260200160405190810160405280929190818152602001828054610cd2906139f0565b8015610d1f5780601f10610cf457610100808354040283529160200191610d1f565b820191906000526020600020905b815481529060010190602001808311610d0257829003601f168201915b505050505081565b600d818051602081018201805184825260208301602085012081835280955050505050506000915090508054610d5c906139f0565b80601f0160208091040260200160405190810160405280929190818152602001828054610d88906139f0565b8015610dd55780601f10610daa57610100808354040283529160200191610dd5565b820191906000526020600020905b815481529060010190602001808311610db857829003601f168201915b505050505081565b6000806002600084815260200190815260200160002060009054906101000a900473ffffffffffffffffffffffffffffffffffffffff169050600073ffffffffffffffffffffffffffffffffffffffff168173ffffffffffffffffffffffffffffffffffffffff161415610e86576040517f08c379a0000000000000000000000000000000000000000000000000000000008152600401610e7d90613d1f565b60405180910390fd5b80915050919050565b60008073ffffffffffffffffffffffffffffffffffffffff168273ffffffffffffffffffffffffffffffffffffffff161415610f00576040517f08c379a0000000000000000000000000000000000000000000000000000000008152600401610ef790613db1565b60405180910390fd5b600360008373ffffffffffffffffffffffffffffffffffffffff1673ffffffffffffffffffffffffffffffffffffffff168152602001908152602001600020549050919050565b600860009054906101000a900473ffffffffffffffffffffffffffffffffffffffff1681565b6000600860009054906101000a900473ffffffffffffffffffffffffffffffffffffffff1673ffffffffffffffffffffffffffffffffffffffff163373ffffffffffffffffffffffffffffffffffffffff1614905090565b606060018054610fd4906139f0565b80601f0160208091040260200160405190810160405280929190818152602001828054611000906139f0565b801561104d5780601f106110225761010080835404028352916020019161104d565b820191906000526020600020905b81548152906001019060200180831161103057829003601f168201915b5050505050905090565b600060036110a884848080601f016020809104026020016040519081016040528093929190818152602001838380828437600081840152601f19601f8201169050808301925050505050505061214e565b101580156111035750600a61110084848080601f016020809104026020016040519081016040528093929190818152602001838380828437600081840152601f19601f8201169050808301925050505050505061214e565b11155b905092915050565b61111d611116611d91565b8383612303565b5050565b61113261112c611d91565b83611e52565b611171576040517f08c379a000000000000000000000000000000000000000000000000000000000815260040161116890613c01565b60405180910390fd5b61117d84848484612470565b50505050565b6000600c8383604051611197929190613b76565b908152602001604051809103902060009054906101000a900473ffffffffffffffffffffffffffffffffffffffff16905092915050565b3373ffffffffffffffffffffffffffffffffffffffff16600c85856040516111f7929190613b76565b908152602001604051809103902060009054906101000a900473ffffffffffffffffffffffffffffffffffffffff1673ffffffffffffffffffffffffffffffffffffffff161461124657600080fd5b600c8484604051611258929190613b76565b908152602001604051809103902060009054906101000a900473ffffffffffffffffffffffffffffffffffffffff1673ffffffffffffffffffffffffffffffffffffffff163373ffffffffffffffffffffffffffffffffffffffff16146112eb576040517f82b4290000000000000000000000000000000000000000000000000000000000815260040160405180910390fd5b8181600d86866040516112ff929190613b76565b9081526020016040518091039020919061131a929190612f53565b5050505050565b606061132c82611d46565b600060066000848152602001908152602001600020805461134c906139f0565b80601f0160208091040260200160405190810160405280929190818152602001828054611378906139f0565b80156113c55780601f1061139a576101008083540402835291602001916113c5565b820191906000526020600020905b8154815290600101906020018083116113a857829003601f168201915b5050505050905060006113d66124cc565b90506000815114156113ec57819250505061142f565b600082511115611421578082604051602001611409929190613e02565b6040516020818303038152906040529250505061142f565b61142a846124e3565b925050505b919050565b6000600560008473ffffffffffffffffffffffffffffffffffffffff1673ffffffffffffffffffffffffffffffffffffffff16815260200190815260200160002060008373ffffffffffffffffffffffffffffffffffffffff1673ffffffffffffffffffffffffffffffffffffffff16815260200190815260200160002060009054906101000a900460ff16905092915050565b600073ffffffffffffffffffffffffffffffffffffffff16600c83836040516114f2929190613b76565b908152602001604051809103902060009054906101000a900473ffffffffffffffffffffffffffffffffffffffff1673ffffffffffffffffffffffffffffffffffffffff161461156e576040517f3a81d6fc00000000000000000000000000000000000000000000000000000000815260040160405180910390fd5b6115788282611057565b6115bb5781816040517f7f19f48d0000000000000000000000000000000000000000000000000000000081526004016115b2929190613e53565b60405180910390fd5b600073ffffffffffffffffffffffffffffffffffffffff16600c83836040516115e5929190613b76565b908152602001604051809103902060009054906101000a900473ffffffffffffffffffffffffffffffffffffffff1673ffffffffffffffffffffffffffffffffffffffff161461163457600080fd5b60006116408383611b9d565b905080341015611685576040517f08c379a000000000000000000000000000000000000000000000000000000000815260040161167c90613ec3565b60405180910390fd5b60008383600960405160200161169d93929190613fc3565b60405160208183030381529060405290506000600a82600b6040516020016116c793929190613ff4565b604051602081830303815290604052905060006116e4600761254b565b9050600061173587878080601f016020809104026020016040519081016040528093929190818152602001838380828437600081840152601f19601f8201169050808301925050505050505061214e565b9050600061174282612559565b9050611836604051806060016040528060318152602001614a2d6031913989898080601f016020809104026020016040519081016040528093929190818152602001838380828437600081840152601f19601f82011690508083019250505050505050600980546117b2906139f0565b80601f01602080910402602001604051908101604052809291908181526020018280546117de906139f0565b801561182b5780601f106118005761010080835404028352916020019161182b565b820191906000526020600020905b81548152906001019060200180831161180e57829003601f168201915b5050505050866126ba565b600061186c866118458761275c565b84604051602001611858939291906141c7565b60405160208183030381529060405261275c565b90506000816040516020016118819190614270565b60405160208183030381529060405290506118b36040518060600160405280603981526020016149f4603991396128f4565b6118f26040518060400160405280600e81526020017f46696e616c20746f6b656e55524900000000000000000000000000000000000081525082611c40565b611913604051806060016040528060398152602001614a5e603991396128f4565b61191d338661298d565b61192785826129ab565b33600c8b8b60405161193a929190613b76565b908152602001604051809103902060006101000a81548173ffffffffffffffffffffffffffffffffffffffff021916908373ffffffffffffffffffffffffffffffffffffffff1602179055508989600e600088815260200190815260200160002091906119a8929190612f53565b506119b36007612a1f565b50505050505050505050565b60606119ff6040518060400160405280601f81526020017f47657474696e6720616c6c206e616d65732066726f6d20636f6e7472616374008152506128f4565b6000611a0b600761254b565b67ffffffffffffffff811115611a2457611a2361343b565b5b604051908082528060200260200182016040528015611a5757816020015b6060815260200190600190039081611a425790505b50905060005b611a67600761254b565b811015611b9557600e60008281526020019081526020016000208054611a8c906139f0565b80601f0160208091040260200160405190810160405280929190818152602001828054611ab8906139f0565b8015611b055780601f10611ada57610100808354040283529160200191611b05565b820191906000526020600020905b815481529060010190602001808311611ae857829003601f168201915b5050505050828281518110611b1d57611b1c614292565b5b6020026020010181905250611b826040518060400160405280601781526020017f4e616d6520666f7220746f6b656e20256420697320257300000000000000000081525082848481518110611b7557611b74614292565b5b6020026020010151612a35565b8080611b8d906142f0565b915050611a5d565b508091505090565b600080611bed84848080601f016020809104026020016040519081016040528093929190818152602001838380828437600081840152601f19601f8201169050808301925050505050505061214e565b905060008111611bfc57600080fd5b6003811415611c155766b1a2bc2ec50000915050611c3a565b6004811415611c2e57666a94d74f430000915050611c3a565b662386f26fc100009150505b92915050565b611cd88282604051602401611c56929190614339565b6040516020818303038152906040527f4b5c4277000000000000000000000000000000000000000000000000000000007bffffffffffffffffffffffffffffffffffffffffffffffffffffffff19166020820180517bffffffffffffffffffffffffffffffffffffffffffffffffffffffff8381831617835250505050612ad4565b5050565b60007f01ffc9a7000000000000000000000000000000000000000000000000000000007bffffffffffffffffffffffffffffffffffffffffffffffffffffffff1916827bffffffffffffffffffffffffffffffffffffffffffffffffffffffff1916149050919050565b611d4f81612afd565b611d8e576040517f08c379a0000000000000000000000000000000000000000000000000000000008152600401611d8590613d1f565b60405180910390fd5b50565b600033905090565b816004600083815260200190815260200160002060006101000a81548173ffffffffffffffffffffffffffffffffffffffff021916908373ffffffffffffffffffffffffffffffffffffffff160217905550808273ffffffffffffffffffffffffffffffffffffffff16611e0c83610ddd565b73ffffffffffffffffffffffffffffffffffffffff167f8c5be1e5ebec7d5bd14f71427d1e84f3dd0314c0f7b2291e5b200ac8c7c3b92560405160405180910390a45050565b600080611e5e83610ddd565b90508073ffffffffffffffffffffffffffffffffffffffff168473ffffffffffffffffffffffffffffffffffffffff161480611ea05750611e9f8185611434565b5b80611ede57508373ffffffffffffffffffffffffffffffffffffffff16611ec684610859565b73ffffffffffffffffffffffffffffffffffffffff16145b91505092915050565b8273ffffffffffffffffffffffffffffffffffffffff16611f0782610ddd565b73ffffffffffffffffffffffffffffffffffffffff1614611f5d576040517f08c379a0000000000000000000000000000000000000000000000000000000008152600401611f54906143e2565b60405180910390fd5b600073ffffffffffffffffffffffffffffffffffffffff168273ffffffffffffffffffffffffffffffffffffffff161415611fcd576040517f08c379a0000000000000000000000000000000000000000000000000000000008152600401611fc490614474565b60405180910390fd5b611fd8838383612b69565b611fe3600082611d99565b6001600360008573ffffffffffffffffffffffffffffffffffffffff1673ffffffffffffffffffffffffffffffffffffffff16815260200190815260200160002060008282546120339190614494565b925050819055506001600360008473ffffffffffffffffffffffffffffffffffffffff1673ffffffffffffffffffffffffffffffffffffffff168152602001908152602001600020600082825461208a91906144c8565b92505081905550816002600083815260200190815260200160002060006101000a81548173ffffffffffffffffffffffffffffffffffffffff021916908373ffffffffffffffffffffffffffffffffffffffff160217905550808273ffffffffffffffffffffffffffffffffffffffff168473ffffffffffffffffffffffffffffffffffffffff167fddf252ad1be2c89b69c2b068fc378daa952ba7f163c4a11628f55a4df523b3ef60405160405180910390a4612149838383612b6e565b505050565b60008060008084519050600092505b808210156122f857600085838151811061217a57612179614292565b5b602001015160f81c60f81b9050608060f81b817effffffffffffffffffffffffffffffffffffffffffffffffffffffffffffff191610156121c9576001836121c291906144c8565b92506122e4565b60e060f81b817effffffffffffffffffffffffffffffffffffffffffffffffffffffffffffff1916101561220b5760028361220491906144c8565b92506122e3565b60f060f81b817effffffffffffffffffffffffffffffffffffffffffffffffffffffffffffff1916101561224d5760038361224691906144c8565b92506122e2565b60f8801b817effffffffffffffffffffffffffffffffffffffffffffffffffffffffffffff1916101561228e5760048361228791906144c8565b92506122e1565b60fc60f81b817effffffffffffffffffffffffffffffffffffffffffffffffffffffffffffff191610156122d0576005836122c991906144c8565b92506122e0565b6006836122dd91906144c8565b92505b5b5b5b5b5082806122f0906142f0565b93505061215d565b829350505050919050565b8173ffffffffffffffffffffffffffffffffffffffff168373ffffffffffffffffffffffffffffffffffffffff161415612372576040517f08c379a00000000000000000000000000000000000000000000000000000000081526004016123699061456a565b60405180910390fd5b80600560008573ffffffffffffffffffffffffffffffffffffffff1673ffffffffffffffffffffffffffffffffffffffff16815260200190815260200160002060008473ffffffffffffffffffffffffffffffffffffffff1673ffffffffffffffffffffffffffffffffffffffff16815260200190815260200160002060006101000a81548160ff0219169083151502179055508173ffffffffffffffffffffffffffffffffffffffff168373ffffffffffffffffffffffffffffffffffffffff167f17307eab39ab6107e8899845ad3d59bd9653f200f220920489ca2b5937696c31836040516124639190613130565b60405180910390a3505050565b61247b848484611ee7565b61248784848484612b73565b6124c6576040517f08c379a00000000000000000000000000000000000000000000000000000000081526004016124bd906145fc565b60405180910390fd5b50505050565b606060405180602001604052806000815250905090565b60606124ee82611d46565b60006124f86124cc565b905060008151116125185760405180602001604052806000815250612543565b8061252284612559565b604051602001612533929190613e02565b6040516020818303038152906040525b915050919050565b600081600001549050919050565b606060008214156125a1576040518060400160405280600181526020017f300000000000000000000000000000000000000000000000000000000000000081525090506126b5565b600082905060005b600082146125d35780806125bc906142f0565b915050600a826125cc919061464b565b91506125a9565b60008167ffffffffffffffff8111156125ef576125ee61343b565b5b6040519080825280601f01601f1916602001820160405280156126215781602001600182028036833780820191505090505b5090505b600085146126ae5760018261263a9190614494565b9150600a85612649919061467c565b603061265591906144c8565b60f81b81838151811061266b5761266a614292565b5b60200101907effffffffffffffffffffffffffffffffffffffffffffffffffffffffffffff1916908160001a905350600a856126a7919061464b565b9450612625565b8093505050505b919050565b612756848484846040516024016126d494939291906146ad565b6040516020818303038152906040527f9fd009f5000000000000000000000000000000000000000000000000000000007bffffffffffffffffffffffffffffffffffffffffffffffffffffffff19166020820180517bffffffffffffffffffffffffffffffffffffffffffffffffffffffff8381831617835250505050612ad4565b50505050565b6060600082519050600081141561278557604051806020016040528060008152509150506128ef565b6000600360028361279691906144c8565b6127a0919061464b565b60046127ac9190614707565b905060006020826127bd91906144c8565b67ffffffffffffffff8111156127d6576127d561343b565b5b6040519080825280601f01601f1916602001820160405280156128085781602001600182028036833780820191505090505b5090506000604051806060016040528060408152602001614a97604091399050600181016020830160005b868110156128ac5760038101905062ffffff818a015116603f8160121c168401518060081b905060ff603f83600c1c1686015116810190508060081b905060ff603f8360061c1686015116810190508060081b905060ff603f831686015116810190508060e01b90508084526004840193505050612833565b5060038606600181146128c657600281146128d6576128e1565b613d3d60f01b60028303526128e1565b603d60f81b60018303525b508484525050819450505050505b919050565b61298a8160405160240161290891906131e4565b6040516020818303038152906040527f41304fac000000000000000000000000000000000000000000000000000000007bffffffffffffffffffffffffffffffffffffffffffffffffffffffff19166020820180517bffffffffffffffffffffffffffffffffffffffffffffffffffffffff8381831617835250505050612ad4565b50565b6129a7828260405180602001604052806000815250612cfb565b5050565b6129b482612afd565b6129f3576040517f08c379a00000000000000000000000000000000000000000000000000000000081526004016129ea906147d3565b60405180910390fd5b80600660008481526020019081526020016000209080519060200190612a1a929190612fd9565b505050565b6001816000016000828254019250508190555050565b612acf838383604051602401612a4d939291906147f3565b6040516020818303038152906040527fa3f5c739000000000000000000000000000000000000000000000000000000007bffffffffffffffffffffffffffffffffffffffffffffffffffffffff19166020820180517bffffffffffffffffffffffffffffffffffffffffffffffffffffffff8381831617835250505050612ad4565b505050565b60008151905060006a636f6e736f6c652e6c6f679050602083016000808483855afa5050505050565b60008073ffffffffffffffffffffffffffffffffffffffff166002600084815260200190815260200160002060009054906101000a900473ffffffffffffffffffffffffffffffffffffffff1673ffffffffffffffffffffffffffffffffffffffff1614159050919050565b505050565b505050565b6000612b948473ffffffffffffffffffffffffffffffffffffffff16612d56565b15612cee578373ffffffffffffffffffffffffffffffffffffffff1663150b7a02612bbd611d91565b8786866040518563ffffffff1660e01b8152600401612bdf949392919061488d565b6020604051808303816000875af1925050508015612c1b57506040513d601f19601f82011682018060405250810190612c1891906148ee565b60015b612c9e573d8060008114612c4b576040519150601f19603f3d011682016040523d82523d6000602084013e612c50565b606091505b50600081511415612c96576040517f08c379a0000000000000000000000000000000000000000000000000000000008152600401612c8d906145fc565b60405180910390fd5b805181602001fd5b63150b7a0260e01b7bffffffffffffffffffffffffffffffffffffffffffffffffffffffff1916817bffffffffffffffffffffffffffffffffffffffffffffffffffffffff191614915050612cf3565b600190505b949350505050565b612d058383612d79565b612d126000848484612b73565b612d51576040517f08c379a0000000000000000000000000000000000000000000000000000000008152600401612d48906145fc565b60405180910390fd5b505050565b6000808273ffffffffffffffffffffffffffffffffffffffff163b119050919050565b600073ffffffffffffffffffffffffffffffffffffffff168273ffffffffffffffffffffffffffffffffffffffff161415612de9576040517f08c379a0000000000000000000000000000000000000000000000000000000008152600401612de090614967565b60405180910390fd5b612df281612afd565b15612e32576040517f08c379a0000000000000000000000000000000000000000000000000000000008152600401612e29906149d3565b60405180910390fd5b612e3e60008383612b69565b6001600360008473ffffffffffffffffffffffffffffffffffffffff1673ffffffffffffffffffffffffffffffffffffffff1681526020019081526020016000206000828254612e8e91906144c8565b92505081905550816002600083815260200190815260200160002060006101000a81548173ffffffffffffffffffffffffffffffffffffffff021916908373ffffffffffffffffffffffffffffffffffffffff160217905550808273ffffffffffffffffffffffffffffffffffffffff16600073ffffffffffffffffffffffffffffffffffffffff167fddf252ad1be2c89b69c2b068fc378daa952ba7f163c4a11628f55a4df523b3ef60405160405180910390a4612f4f60008383612b6e565b5050565b828054612f5f906139f0565b90600052602060002090601f016020900481019282612f815760008555612fc8565b82601f10612f9a57803560ff1916838001178555612fc8565b82800160010185558215612fc8579182015b82811115612fc7578235825591602001919060010190612fac565b5b509050612fd5919061305f565b5090565b828054612fe5906139f0565b90600052602060002090601f016020900481019282613007576000855561304e565b82601f1061302057805160ff191683800117855561304e565b8280016001018555821561304e579182015b8281111561304d578251825591602001919060010190613032565b5b50905061305b919061305f565b5090565b5b80821115613078576000816000905550600101613060565b5090565b6000604051905090565b600080fd5b600080fd5b60007fffffffff0000000000000000000000000000000000000000000000000000000082169050919050565b6130c581613090565b81146130d057600080fd5b50565b6000813590506130e2816130bc565b92915050565b6000602082840312156130fe576130fd613086565b5b600061310c848285016130d3565b91505092915050565b60008115159050919050565b61312a81613115565b82525050565b60006020820190506131456000830184613121565b92915050565b600081519050919050565b600082825260208201905092915050565b60005b8381101561318557808201518184015260208101905061316a565b83811115613194576000848401525b50505050565b6000601f19601f8301169050919050565b60006131b68261314b565b6131c08185613156565b93506131d0818560208601613167565b6131d98161319a565b840191505092915050565b600060208201905081810360008301526131fe81846131ab565b905092915050565b6000819050919050565b61321981613206565b811461322457600080fd5b50565b60008135905061323681613210565b92915050565b60006020828403121561325257613251613086565b5b600061326084828501613227565b91505092915050565b600073ffffffffffffffffffffffffffffffffffffffff82169050919050565b600061329482613269565b9050919050565b6132a481613289565b82525050565b60006020820190506132bf600083018461329b565b92915050565b6132ce81613289565b81146132d957600080fd5b50565b6000813590506132eb816132c5565b92915050565b6000806040838503121561330857613307613086565b5b6000613316858286016132dc565b925050602061332785828601613227565b9150509250929050565b600080fd5b600080fd5b600080fd5b60008083601f84011261335657613355613331565b5b8235905067ffffffffffffffff81111561337357613372613336565b5b60208301915083600182028301111561338f5761338e61333b565b5b9250929050565b600080602083850312156133ad576133ac613086565b5b600083013567ffffffffffffffff8111156133cb576133ca61308b565b5b6133d785828601613340565b92509250509250929050565b6000806000606084860312156133fc576133fb613086565b5b600061340a868287016132dc565b935050602061341b868287016132dc565b925050604061342c86828701613227565b9150509250925092565b600080fd5b7f4e487b7100000000000000000000000000000000000000000000000000000000600052604160045260246000fd5b6134738261319a565b810181811067ffffffffffffffff821117156134925761349161343b565b5b80604052505050565b60006134a561307c565b90506134b1828261346a565b919050565b600067ffffffffffffffff8211156134d1576134d061343b565b5b6134da8261319a565b9050602081019050919050565b82818337600083830152505050565b6000613509613504846134b6565b61349b565b90508281526020810184848401111561352557613524613436565b5b6135308482856134e7565b509392505050565b600082601f83011261354d5761354c613331565b5b813561355d8482602086016134f6565b91505092915050565b60006020828403121561357c5761357b613086565b5b600082013567ffffffffffffffff81111561359a5761359961308b565b5b6135a684828501613538565b91505092915050565b6000602082840312156135c5576135c4613086565b5b60006135d3848285016132dc565b91505092915050565b6135e581613206565b82525050565b600060208201905061360060008301846135dc565b92915050565b600061361182613269565b9050919050565b61362181613606565b82525050565b600060208201905061363c6000830184613618565b92915050565b61364b81613115565b811461365657600080fd5b50565b60008135905061366881613642565b92915050565b6000806040838503121561368557613684613086565b5b6000613693858286016132dc565b92505060206136a485828601613659565b9150509250929050565b600067ffffffffffffffff8211156136c9576136c861343b565b5b6136d28261319a565b9050602081019050919050565b60006136f26136ed846136ae565b61349b565b90508281526020810184848401111561370e5761370d613436565b5b6137198482856134e7565b509392505050565b600082601f83011261373657613735613331565b5b81356137468482602086016136df565b91505092915050565b6000806000806080858703121561376957613768613086565b5b6000613777878288016132dc565b9450506020613788878288016132dc565b935050604061379987828801613227565b925050606085013567ffffffffffffffff8111156137ba576137b961308b565b5b6137c687828801613721565b91505092959194509250565b600080600080604085870312156137ec576137eb613086565b5b600085013567ffffffffffffffff81111561380a5761380961308b565b5b61381687828801613340565b9450945050602085013567ffffffffffffffff8111156138395761383861308b565b5b61384587828801613340565b925092505092959194509250565b6000806040838503121561386a57613869613086565b5b6000613878858286016132dc565b9250506020613889858286016132dc565b9150509250929050565b600081519050919050565b600082825260208201905092915050565b6000819050602082019050919050565b600082825260208201905092915050565b60006138db8261314b565b6138e581856138bf565b93506138f5818560208601613167565b6138fe8161319a565b840191505092915050565b600061391583836138d0565b905092915050565b6000602082019050919050565b600061393582613893565b61393f818561389e565b935083602082028501613951856138af565b8060005b8581101561398d578484038952815161396e8582613909565b94506139798361391d565b925060208a01995050600181019050613955565b50829750879550505050505092915050565b600060208201905081810360008301526139b9818461392a565b905092915050565b7f4e487b7100000000000000000000000000000000000000000000000000000000600052602260045260246000fd5b60006002820490506001821680613a0857607f821691505b60208210811415613a1c57613a1b6139c1565b5b50919050565b7f4552433732313a20617070726f76616c20746f2063757272656e74206f776e6560008201527f7200000000000000000000000000000000000000000000000000000000000000602082015250565b6000613a7e602183613156565b9150613a8982613a22565b604082019050919050565b60006020820190508181036000830152613aad81613a71565b9050919050565b7f4552433732313a20617070726f76652063616c6c6572206973206e6f7420746f60008201527f6b656e206f776e6572206e6f7220617070726f76656420666f7220616c6c0000602082015250565b6000613b10603e83613156565b9150613b1b82613ab4565b604082019050919050565b60006020820190508181036000830152613b3f81613b03565b9050919050565b600081905092915050565b6000613b5d8385613b46565b9350613b6a8385846134e7565b82840190509392505050565b6000613b83828486613b51565b91508190509392505050565b7f4552433732313a2063616c6c6572206973206e6f7420746f6b656e206f776e6560008201527f72206e6f7220617070726f766564000000000000000000000000000000000000602082015250565b6000613beb602e83613156565b9150613bf682613b8f565b604082019050919050565b60006020820190508181036000830152613c1a81613bde565b9050919050565b600081905092915050565b50565b6000613c3c600083613c21565b9150613c4782613c2c565b600082019050919050565b6000613c5d82613c2f565b9150819050919050565b7f4661696c656420746f207769746864726177204d617469630000000000000000600082015250565b6000613c9d601883613156565b9150613ca882613c67565b602082019050919050565b60006020820190508181036000830152613ccc81613c90565b9050919050565b7f4552433732313a20696e76616c696420746f6b656e2049440000000000000000600082015250565b6000613d09601883613156565b9150613d1482613cd3565b602082019050919050565b60006020820190508181036000830152613d3881613cfc565b9050919050565b7f4552433732313a2061646472657373207a65726f206973206e6f74206120766160008201527f6c6964206f776e65720000000000000000000000000000000000000000000000602082015250565b6000613d9b602983613156565b9150613da682613d3f565b604082019050919050565b60006020820190508181036000830152613dca81613d8e565b9050919050565b6000613ddc8261314b565b613de68185613b46565b9350613df6818560208601613167565b80840191505092915050565b6000613e0e8285613dd1565b9150613e1a8284613dd1565b91508190509392505050565b6000613e328385613156565b9350613e3f8385846134e7565b613e488361319a565b840190509392505050565b60006020820190508181036000830152613e6e818486613e26565b90509392505050565b7f4e6f7420656e6f756768204d6174696320706169640000000000000000000000600082015250565b6000613ead601583613156565b9150613eb882613e77565b602082019050919050565b60006020820190508181036000830152613edc81613ea0565b9050919050565b7f2e00000000000000000000000000000000000000000000000000000000000000600082015250565b6000613f19600183613b46565b9150613f2482613ee3565b600182019050919050565b60008190508160005260206000209050919050565b60008154613f51816139f0565b613f5b8186613b46565b94506001821660008114613f765760018114613f8757613fba565b60ff19831686528186019350613fba565b613f9085613f2f565b60005b83811015613fb257815481890152600182019150602081019050613f93565b838801955050505b50505092915050565b6000613fd0828587613b51565b9150613fdb82613f0c565b9150613fe78284613f44565b9150819050949350505050565b60006140008286613f44565b915061400c8285613dd1565b91506140188284613f44565b9150819050949350505050565b7f7b226e616d65223a202200000000000000000000000000000000000000000000600082015250565b600061405b600a83613b46565b915061406682614025565b600a82019050919050565b7f222c20226465736372697074696f6e223a20224120646f6d61696e206f6e207460008201527f68652048656c6c6f5468657265206e616d652073657276696365222c2022696d60208201527f616765223a2022646174613a696d6167652f7376672b786d6c3b62617365363460408201527f2c00000000000000000000000000000000000000000000000000000000000000606082015250565b6000614119606183613b46565b915061412482614071565b606182019050919050565b7f222c20226c656e677468223a2022000000000000000000000000000000000000600082015250565b6000614165600e83613b46565b91506141708261412f565b600e82019050919050565b7f227d000000000000000000000000000000000000000000000000000000000000600082015250565b60006141b1600283613b46565b91506141bc8261417b565b600282019050919050565b60006141d28261404e565b91506141de8286613dd1565b91506141e98261410c565b91506141f58285613dd1565b915061420082614158565b915061420c8284613dd1565b9150614217826141a4565b9150819050949350505050565b7f646174613a6170706c69636174696f6e2f6a736f6e3b6261736536342c000000600082015250565b600061425a601d83613b46565b915061426582614224565b601d82019050919050565b600061427b8261424d565b91506142878284613dd1565b915081905092915050565b7f4e487b7100000000000000000000000000000000000000000000000000000000600052603260045260246000fd5b7f4e487b7100000000000000000000000000000000000000000000000000000000600052601160045260246000fd5b60006142fb82613206565b91507fffffffffffffffffffffffffffffffffffffffffffffffffffffffffffffffff82141561432e5761432d6142c1565b5b600182019050919050565b6000604082019050818103600083015261435381856131ab565b9050818103602083015261436781846131ab565b90509392505050565b7f4552433732313a207472616e736665722066726f6d20696e636f72726563742060008201527f6f776e6572000000000000000000000000000000000000000000000000000000602082015250565b60006143cc602583613156565b91506143d782614370565b604082019050919050565b600060208201905081810360008301526143fb816143bf565b9050919050565b7f4552433732313a207472616e7366657220746f20746865207a65726f2061646460008201527f7265737300000000000000000000000000000000000000000000000000000000602082015250565b600061445e602483613156565b915061446982614402565b604082019050919050565b6000602082019050818103600083015261448d81614451565b9050919050565b600061449f82613206565b91506144aa83613206565b9250828210156144bd576144bc6142c1565b5b828203905092915050565b60006144d382613206565b91506144de83613206565b9250827fffffffffffffffffffffffffffffffffffffffffffffffffffffffffffffffff03821115614513576145126142c1565b5b828201905092915050565b7f4552433732313a20617070726f766520746f2063616c6c657200000000000000600082015250565b6000614554601983613156565b915061455f8261451e565b602082019050919050565b6000602082019050818103600083015261458381614547565b9050919050565b7f4552433732313a207472616e7366657220746f206e6f6e20455243373231526560008201527f63656976657220696d706c656d656e7465720000000000000000000000000000602082015250565b60006145e6603283613156565b91506145f18261458a565b604082019050919050565b60006020820190508181036000830152614615816145d9565b9050919050565b7f4e487b7100000000000000000000000000000000000000000000000000000000600052601260045260246000fd5b600061465682613206565b915061466183613206565b9250826146715761467061461c565b5b828204905092915050565b600061468782613206565b915061469283613206565b9250826146a2576146a161461c565b5b828206905092915050565b600060808201905081810360008301526146c781876131ab565b905081810360208301526146db81866131ab565b905081810360408301526146ef81856131ab565b90506146fe60608301846135dc565b95945050505050565b600061471282613206565b915061471d83613206565b9250817fffffffffffffffffffffffffffffffffffffffffffffffffffffffffffffffff0483118215151615614756576147556142c1565b5b828202905092915050565b7f45524337323155524953746f726167653a2055524920736574206f66206e6f6e60008201527f6578697374656e7420746f6b656e000000000000000000000000000000000000602082015250565b60006147bd602e83613156565b91506147c882614761565b604082019050919050565b600060208201905081810360008301526147ec816147b0565b9050919050565b6000606082019050818103600083015261480d81866131ab565b905061481c60208301856135dc565b818103604083015261482e81846131ab565b9050949350505050565b600081519050919050565b600082825260208201905092915050565b600061485f82614838565b6148698185614843565b9350614879818560208601613167565b6148828161319a565b840191505092915050565b60006080820190506148a2600083018761329b565b6148af602083018661329b565b6148bc60408301856135dc565b81810360608301526148ce8184614854565b905095945050505050565b6000815190506148e8816130bc565b92915050565b60006020828403121561490457614903613086565b5b6000614912848285016148d9565b91505092915050565b7f4552433732313a206d696e7420746f20746865207a65726f2061646472657373600082015250565b6000614951602083613156565b915061495c8261491b565b602082019050919050565b6000602082019050818103600083015261498081614944565b9050919050565b7f4552433732313a20746f6b656e20616c7265616479206d696e74656400000000600082015250565b60006149bd601c83613156565b91506149c882614987565b602082019050919050565b600060208201905081810360008301526149ec816149b0565b905091905056fe0a2d2d2d2d2d2d2d2d2d2d2d2d2d2d2d2d2d2d2d2d2d2d2d2d2d2d2d2d2d2d2d2d2d2d2d2d2d2d2d2d2d2d2d2d2d2d2d2d2d2d2d2d2d2d2d2d5265676973746572696e672025732e2573206f6e2074686520636f6e7472616374207769746820746f6b656e49442025642d2d2d2d2d2d2d2d2d2d2d2d2d2d2d2d2d2d2d2d2d2d2d2d2d2d2d2d2d2d2d2d2d2d2d2d2d2d2d2d2d2d2d2d2d2d2d2d2d2d2d2d2d2d2d2d0a4142434445464748494a4b4c4d4e4f505152535455565758595a6162636465666768696a6b6c6d6e6f707172737475767778797a303132333435363738392b2fa26469706673582212208672264503cc81afe3f95619d51adab7bf477646f600b77d8bc6845eb2e2789764736f6c634300080a00333c73766720786d6c6e733d22687474703a2f2f7777772e77332e6f72672f323030302f737667222077696474683d2232373022206865696768743d22323730222066696c6c3d226e6f6e65223e3c706174682066696c6c3d2275726c282342292220643d224d302030683237307632373048307a222f3e3c646566733e3c66696c7465722069643d22412220636f6c6f722d696e746572706f6c6174696f6e2d66696c746572733d2273524742222066696c746572556e6974733d227573657253706163654f6e55736522206865696768743d22323730222077696474683d22323730223e3c666544726f70536861646f772064783d2230222064793d22312220737464446576696174696f6e3d22322220666c6f6f642d6f7061636974793d222e323235222077696474683d223230302522206865696768743d2232303025222f3e3c2f66696c7465723e3c2f646566733e3c7061746820643d224d37322e3836332034322e393439632d2e3636382d2e3338372d312e3432362d2e35392d322e3139372d2e3539732d312e3532392e3230342d322e3139372e35396c2d31302e30383120362e3033322d362e383520332e3933342d31302e30383120362e303332632d2e3636382e3338372d312e3432362e35392d322e3139372e3539732d312e3532392d2e3230342d322e3139372d2e35396c2d382e3031332d342e37323161342e353220342e35322030203020312d312e3538392d312e363136632d2e3338342d2e3636352d2e3539342d312e3431382d2e3630382d322e313837762d392e3331632d2e3031332d2e3737352e3138352d312e3533382e3537322d322e32303861342e323520342e323520302030203120312e3632352d312e3539356c372e3838342d342e3539632e3636382d2e33383720312e3432362d2e353920322e3139372d2e353973312e3532392e32303420322e3139372e35396c372e38383420342e353961342e353220342e353220302030203120312e35383920312e363136632e3338342e3636352e35393420312e3431382e36303820322e31383776362e3033326c362e38352d342e303635762d362e303332632e3031332d2e3737352d2e3138352d312e3533382d2e3537322d322e32303861342e323520342e32352030203020302d312e3632352d312e3539354c34312e3435362032342e3539632d2e3636382d2e3338372d312e3432362d2e35392d322e3139372d2e3539732d312e3532392e3230342d322e3139372e35396c2d31342e38363420382e36353561342e323520342e32352030203020302d312e36323520312e353935632d2e3338372e36372d2e35383520312e3433342d2e35373220322e3230387631372e343431632d2e3031332e3737352e31383520312e3533382e35373220322e32303861342e323520342e323520302030203020312e36323520312e3539356c31342e38363420382e363535632e3636382e33383720312e3432362e353920322e3139372e353973312e3532392d2e32303420322e3139372d2e35396c31302e3038312d352e39303120362e38352d342e3036352031302e3038312d352e393031632e3636382d2e33383720312e3432362d2e353920322e3139372d2e353973312e3532392e32303420322e3139372e35396c372e38383420342e353961342e353220342e353220302030203120312e35383920312e363136632e3338342e3636352e35393420312e3431382e36303820322e31383776392e333131632e3031332e3737352d2e31383520312e3533382d2e35373220322e32303861342e323520342e32352030203020312d312e36323520312e3539356c2d372e38383420342e373231632d2e3636382e3338372d312e3432362e35392d322e3139372e3539732d312e3532392d2e3230342d322e3139372d2e35396c2d372e3838342d342e353961342e353220342e35322030203020312d312e3538392d312e363136632d2e3338352d2e3636352d2e3539342d312e3431382d2e3630382d322e313837762d362e3033326c2d362e383520342e30363576362e303332632d2e3031332e3737352e31383520312e3533382e35373220322e32303861342e323520342e323520302030203020312e36323520312e3539356c31342e38363420382e363535632e3636382e33383720312e3432362e353920322e3139372e353973312e3532392d2e32303420322e3139372d2e35396c31342e3836342d382e363535632e3635372d2e33393420312e3230342d2e393520312e3538392d312e363136732e3539342d312e3431382e3630392d322e3138375635352e353338632e3031332d2e3737352d2e3138352d312e3533382d2e3537322d322e32303861342e323520342e32352030203020302d312e3632352d312e3539356c2d31342e3939332d382e3738367a222066696c6c3d2223666666222f3e3c646566733e3c6c696e6561724772616469656e742069643d2242222078313d2230222079313d2230222078323d22323730222079323d2232373022206772616469656e74556e6974733d227573657253706163654f6e557365223e3c73746f702073746f702d636f6c6f723d2223636235656565222f3e3c73746f70206f66667365743d2231222073746f702d636f6c6f723d2223306364376534222073746f702d6f7061636974793d222e3939222f3e3c2f6c696e6561724772616469656e743e3c2f646566733e3c7465787420783d2233322e352220793d223233312220666f6e742d73697a653d223237222066696c6c3d2223666666222066696c7465723d2275726c282341292220666f6e742d66616d696c793d22506c7573204a616b617274612053616e732c44656a6156752053616e732c4e6f746f20436f6c6f7220456d6f6a692c4170706c6520436f6c6f7220456d6f6a692c73616e732d73657269662220666f6e742d7765696768743d22626f6c64223e",
    "linkReferences": {},
    "deployedLinkReferences": {}
}